:02000000872A4D
:10000600710DF80DF90D7408F8027508031C750FCB
:10001600F902F00DF10D0F30FC00710DF80DF90D20
:100026007408701C1C28F8027508031C750FF90269
:100036002128F80775080318750FF907F00DF10D5B
:10004600FC0B102870182D287408F807750803187B
:08005600750FF9070000080016
:10005E00BB28013083120313F1000130F20001308E
:10006E00F3000130F4000130F5000130F600F70125
:10007E000E29F1010130F2000130F300F401F50117
:10008E00F601F7010E290130F1000130F200F30103
:10009E000130F4000130F500F6010130F7000E29B1
:1000AE000130F1000130F2000130F3000130F400B4
:1000BE00F501F6010130F7000E29F1010130F200D1
:1000CE000130F300F401F5010130F6000130F700C4
:1000DE000E290130F100F2010130F3000130F4007D
:1000EE00F5010130F6000130F7000E290130F10064
:1000FE00F2010130F3000130F4000130F50001305F
:10010E00F6000130F7000E290130F1000130F20047
:10011E000130F300F401F501F601F7010E2901306B
:10012E00F1000130F2000130F3000130F400013033
:10013E00F5000130F6000130F7000E290130F10014
:10014E000130F2000130F3000130F400F50101300E
:10015E00F6000130F7000E29F101F201F301F4016E
:10016E00F501F601F7010E298312031300302B0659
:10017E00031DC32800302A060319302800302B0631
:10018E00031DCB2801302A060319402800302B0608
:10019E00031DD32802302A0603194A2800302B06E5
:1001AE00031DDB2803302A060319572800302B06BF
:1001BE00031DE32804302A060319642800302B0699
:1001CE00031DEB2805302A060319702800302B0674
:1001DE00031DF32806302A0603197D2800302B064E
:1001EE00031DFB2807302A0603198B2800302B0627
:1001FE00031D032908302A060319962800302B0602
:10020E00031D0B2909302A060319A528B328A32993
:10021E007118152983120313081118298312031359
:10022E00081572181C2987101D2987147318212987
:10023E0088132229881774182629051027290514D2
:10024E0075182B2906112C29061576183029071238
:10025E003129071677183529861336298617B529B9
:10026E0071183B2988113C2988157218402986106F
:10027E004129861473184529071046290714741846
:10028E004A2985114B29851575184F2908135029B0
:10029E000817761854290610552906147718592967
:1002AE0087125A298716B52971185F2907116029F7
:1002BE00071572186429081065290814731869291E
:1002CE0085106A29851474186E2906126F29061670
:1002DE0075187329071374290717761878290812C9
:1002EE007929081677187D2986127E298616B52952
:1002FE007118832987138429871772188829881003
:10030E008929881473188D2906138E2906177418D7
:10031E009229051193290515751897298812982980
:10032E00881676189C2987119D2987157718A1297B
:10033E008611A2298615B529831203132C08013ABA
:10034E0003190F292C08023A031937292C08033AEE
:0E035E0003195B292C08043A03197F290800B3
:10036C00831203137408003A031DC5297508003A5B
:10037C00031DC529FF30F0007F30F1001E2A8312C7
:10038C000313FD01F901F80171087004031900341D
:10039C0071087506FA00FA1BFD09FB01F51FDB2934
:1003AC00F409F509F40A0319F50AF11FE229F00919
:1003BC00F109F00A0319F10A71087504FA00FA1B25
:1003CC00F72903207B180A2AFD1F0034F009F109D4
:1003DC00F00A0319F10AF809F909F80A0319F90ADC
:1003EC000034F51F062AF11B022A7108F900700867
:1003FC00F800F101F001EA29F101F001F00A0034F2
:10040C00F109F009FB0AE729F80A0319F90A74083B
:10041C007802031DEA2975087902031DEA29F901FE
:10042C00F801F00A0319F10AF11FEA290000FF3460
:02043C000800B6
:0E043E008312031325088A0024088200080098
:10044C008316031385018601870188019F141F15EC
:04045C009F110800E4
:100460000A3083120313F4000030F5002608F00070
:100470002708F100B6217008AA007108AB0001300E
:10048000AC002F200A30F4000030F5002608F00000
:100490002708F100B6217808F0007908F10070080B
:1004A000AA007108AB000230AC002F200A30F40023
:1004B0000030F5002808F0002908F100B621700886
:1004C000AA007108AB000330AC002F200A30F40002
:1004D0000030F5002808F0002908F100B62178085E
:1004E000F0007908F1007008AA007108AB00043030
:0604F000AC002F20080003
:1004F6001F228A110A128000840AA40A0319A50A77
:08050600F003031D7B2A08002D
:10050E001E3083120313A000A1010130A200A3012B
:10051E00262283122208A6002308A7002008A8007E
:10052E002108A90030221A30FB005E30FC006E302C
:10053E00FD00FD0BA02AFC0BA02AFB0BA02A00003D
:10054E002108003C031DAD2A2008003C0318B42AE4
:10055E000130A002031CA103C42A2308003C031D82
:10056E00BA2A2208003C0318C42A0130A202031C36
:10057E00A3033B30A0000030A1002208A6002308F0
:10058E00A7002008A8002108A90030220D30FB008A
:10059E00AF30FC00B630FD00FD0BD32AFC0BD32A86
:1005AE00FB0BD32A000000302306031DE02A003087
:1005BE002206031D262B00302106031DE82A0030DB
:1005CE002006031D262B0A30AA000030AB00013096
:1005DE00AC002F200A30AA000030AB000230AC0075
:1005EE002F200A30AA000030AB000330AC002F20C1
:1005FE000A30AA000030AB000430AC002F200D30C2
:10060E00FB00AF30FC00B630FD00FD0B0C2BFC0BDD
:10061E000C2BFB0B0C2B0000A601A701A801A901B6
:10062E0030220D30FB00AF30FC00B630FD00FD0B6C
:10063E001E2BFC0B1E2BFB0B1E2B0000EA2A9A2AEC
:02064E00272B58
:02400E004A2F37
:00000001FF
