:020000003D2B96
:10000600710DF80DF90D7408F8027508031C750FCB
:10001600F902F00DF10D0F30FC00710DF80DF90D20
:100026007408701C1C28F8027508031C750FF90269
:100036002128F80775080318750FF907F00DF10D5B
:10004600FC0B102870182D287408F807750803187B
:08005600750FF9070000080016
:10005E003929013083120313F1000030F200013010
:10006E00F3000030F4000130F5000030F6000130EE
:10007E00F7000030F8000130F9000030FA000130CE
:10008E00FB000030FC00FD01FE018C29F101F201A4
:10009E000130F3000030F4000130F5000030F600BE
:1000AE00F701F801F901FA01FB01FC01FD01FE0166
:1000BE008C290130F1000030F2000130F3000030E5
:1000CE00F400F501F6010130F7000030F8000130C0
:1000DE00F9000030FA00FB01FC010130FD00003098
:1000EE00FE008C290130F1000030F2000130F300E7
:1000FE000030F4000130F5000030F6000130F7005A
:10010E000030F800F901FA01FB01FC010130FD009D
:10011E000030FE008C29F101F2010130F3000030B5
:10012E00F4000130F5000030F600F701F801F90196
:10013E00FA010130FB000030FC000130FD00003000
:10014E00FE008C290130F1000030F200F301F401C1
:10015E000130F5000030F6000130F7000030F800F5
:10016E00F901FA010130FB000030FC000130FD0006
:10017E000030FE008C290130F1000030F200F30156
:10018E00F4010130F5000030F6000130F7000030C8
:10019E00F8000130F9000030FA000130FB000030A9
:1001AE00FC000130FD000030FE008C290130F10012
:1001BE000030F2000130F3000030F4000130F500A1
:1001CE000030F600F701F801F901FA01FB01FC011C
:1001DE00FD01FE018C290130F1000030F2000130EA
:1001EE00F3000030F4000130F5000030F60001306D
:1001FE00F7000030F8000130F9000030FA0001304D
:10020E00FB000030FC000130FD000030FE008C29A8
:10021E000130F1000030F2000130F3000030F40044
:10022E000130F5000030F6000130F7000030F80024
:10023E00F901FA010130FB000030FC000130FD0035
:10024E000030FE008C29F101F201F301F401F501F9
:10025E00F601F701F801F901FA01FB01FC01FD01BC
:10026E00FE018C298312031300302B06031D412936
:10027E0000302A060319302800302B06031D4929A9
:10028E0001302A0603194D2800302B06031D512973
:10029E0002302A060319602800302B06031D592947
:1002AE0003302A060319792800302B06031D612915
:1002BE0004302A060319922800302B06031D6929E3
:1002CE0005302A060319A92800302B06031D7129B3
:1002DE0006302A060319C22800302B06031D792981
:1002EE0007302A060319DD2800302B06031D81294D
:1002FE0008302A060319F22800302B06031D89291F
:10030E0009302A0603190F292A29212A711893293F
:10031E0083120313081196298312031308157318F9
:10032E009A2987109B29871475189F298813A0294D
:10033E0088177718A4290510A52905147918A92955
:10034E000611AA2906157B18AE290712AF29071622
:10035E007D18B3298613B4298617432A7118B92933
:10036E008811BA2988157318BE298610BF298614DC
:10037E007518C3290710C42907147718C8298511C1
:10038E00C92985157918CD290813CE2908177B1888
:10039E00D2290610D32906147D18D7298712D829F9
:1003AE008716432A7118DD290711DE2907157318E0
:1003BE00E2290810E32908147518E7298510E829A1
:1003CE0085147718EC290612ED2906167918F129ED
:1003DE000713F22907177B18F6290812F7290816B2
:1003EE007D18FB298612FC298616432A7118012ACC
:1003FE008713022A87177318062A8810072A88146B
:10040E0075180B2A06130C2A06177718102A0511D1
:10041E00112A05157918152A8812162A88167B189E
:10042E001A2A87111B2A87157D181F2A8611202A42
:10043E008615432A8312031300302D06031D292A25
:10044E0001302C0603198D2900302D06031D312A8B
:10045E0002302C060319B52900302D06031D392A4A
:10046E0003302C060319D92900302D06031D412A0D
:0A047E0004302C060319FD290800C4
:0E0488008312031325088A002408820008004E
:10049600831203137408003A031D5A2A7508003A9A
:1004A600031D5A2AFF30F0007F30F100B32A831271
:1004B6000313FD01F901F8017108700403190034F2
:1004C60071087506FA00FA1BFD09FB01F51F702A73
:1004D600F409F509F40A0319F50AF11F772AF00958
:1004E600F109F00A0319F10A71087504FA00FA1BFA
:1004F6008C2A03207B189F2AFD1F0034F009F1097E
:10050600F00A0319F10AF809F909F80A0319F90AB0
:100516000034F51F9B2AF11B972A7108F900700811
:10052600F800F101F0017F2AF101F001F00A003430
:10053600F109F009FB0A7C2AF80A0319F90A74087A
:100546007802031D7F2A75087902031D7F2AF901A7
:10055600F801F00A0319F10AF11F7F2A0000FF349F
:0205660008008B
:1005680044228A110A128000840AA40A0319A50ADF
:08057800F003031DB42A080082
:100580000A3083120313F4000030F5002608F0004F
:100590002708F1004B227008AA007108AB00013057
:1005A000AC000030AD002F200A30F4000030F50020
:1005B0002608F0002708F1004B227808F00079089F
:1005C000F1007008AA007108AB000230AC000030E6
:1005D000AD002F200A30F4000030F5002808F000AC
:1005E0002908F1004B227008AA007108AB00033003
:1005F000AC000030AD002F200A30F4000030F500D0
:100600002808F0002908F1004B227808F00079084A
:10061000F1007008AA007108AB000430AC00003093
:06062000AD002F200800D0
:10062600831203132108003C031D1B2B2008003CEA
:100636000318222B0130A002031CA103322B23082E
:10064600003C031D282B2208003C0318322B0130E6
:10065600A202031CA3033B30A0000030A100080047
:100666008316031385018601870188019F141F15D0
:040676009F110800C8
:10067A001E3083120313A000A1010130A200A301BE
:10068A00332383122208A6002308A7002008A80003
:10069A002108A900C0221A30FB005E30FC006E302F
:1006AA00FD00FD0B562BFC0B562BFB0B562B0000AB
:1006BA0013232208A6002308A7002008A80021085F
:1006CA00A900C0220D30FB00AF30FC00B630FD009F
:1006DA00FD0B6D2BFC0B6D2BFB0B6D2B0000003003
:1006EA002306031D7A2B00302206031DC82B003077
:1006FA002106031D822B00302006031DC82B0A3059
:10070A00AA000030AB000130AC000030AD002F2051
:10071A000A30AA000030AB000230AC000030AD0055
:10072A002F200A30AA000030AB000330AC000030A2
:10073A00AD002F200A30AA000030AB000430AC0014
:10074A000030AD002F200D30FB00AF30FC00B6307A
:10075A00FD00FD0BAE2BFC0BAE2BFB0BAE2B0000F2
:10076A00A601A701A801A901C0220D30FB00AF30E4
:10077A00FC00B630FD00FD0BC02BFC0BC02BFB0BA5
:0A078A00C02B0000842B502BC92B5C
:02400E004A2F37
:00000001FF
